:020000040000FA
:100000000A128A110C281934FE00030EF0000A08A7
:10001000F1000A128A15502F0A128A110F280A12AB
:100020008A1103200A128A11FB008313A030840076
:10003000D0300A128A15D0260A128A115130840053
:100040006E300A128A15D0260A128A11FA0183012B
:100050000A128A112B2883160313880181130614B0
:100060008614061507150713871705148510051143
:10007000851185128B170B170C1483120313901024
:100080001016901610149E308F0058308E00831674
:1000900003131F109F141F159F15831203131F13A3
:1000A0009F13831603139F139E01831203139E0154
:1000B0001F149F111F129F12831603138115011025
:1000C0008114011564000A128A11D2240A128A11BD
:1000D000003083120313AA000030A9002530A800C5
:1000E0008030A7000A128A11B2270A128A118312DD
:1000F000031385100511851164000A128A11E52782
:100100000A128A110A128A1532270A128A110A1251
:100110008A112F250A128A11831203131F15053025
:1001200083120313CE00CE0B932896288312031359
:100130001E08CE00CF014E08D9004F08DA00600833
:10014000CE00CF014E08D7004F08D8005F08CE0080
:10015000CF014E08D5004F08D600061CB028B128A4
:10016000B7280A128A112D260A128A11E0280A12CB
:100170008A1108270A128A11831203138618C128CC
:10018000C228CE280F3083120313CE00CE0BC62810
:10019000C9280A128A15E2260A128A118312031349
:1001A0000619D328D428E0280F3083120313CE0079
:1001B000CE0BD828DB280A128A15D8260A128A11F3
:1001C000FA1CE328E428EA280A128A1179260A127E
:1001D0008A11FA10831203135A08803AFF00803004
:1001E0007F02031DF528413059020318F828F92829
:1001F000FD288312031385140F29831203135A0851
:10020000803AFF0080307F02031D08294B305902DD
:10021000031C0B290C290F298312031385107B085B
:10022000FD3E83120313CE00FF3003180030CF00D1
:100230004F08803AD0005808803A5002031D222906
:1002400057084E02031C252926292B298312031344
:1002500005157A143C297B0883120313CE00CF01C5
:1002600058084F06031D362957084E06031D392925
:100270003A293C2905117A105608803AFF0080304F
:100280007F02031D45292D305502031848294929AD
:100290004D298312031385158629831203135608EB
:1002A000803AFF0080307F02031D58293730550205
:1002B000031C5B295C297429831203135608803AB6
:1002C000FF0080307F02031D67293D30550203186F
:1002D0006A296B2974298312031385117A187129ED
:1002E0007229862905118629831203135608803A3C
:1002F000FF0080307F02031D7F293D305502031C23
:100300008229832986298312031305157B08033E5E
:1003100083120313CE00003003180130CF005808B9
:10032000803AD0004F08803A5002031D99294E08A8
:100330005702031C9C299D29A129831203138516AA
:10034000B1297B0883120313CE00CF0158084F0652
:10035000031DAC2957084E06031DAF29B029B1294A
:100360008512063083120313D0001330CF00AD3056
:10037000CE00CE0BB929CF0BB929D00BB9297C28D7
:100380000A128A110C28831203132B08840083138A
:10039000000884000A128A114C270A128A11253A91
:1003A000031DD329D429B02A2B08840001308007EB
:1003B000D101D2010030DD00FF30D300FF30D40086
:1003C0002B0884000008B000300884000A128A114B
:1003D0004C270A128A11643A0319EF29F029FC29E3
:1003E000300884000A128A114C270A128A11693ACD
:1003F000031DFB29FC29882A2C0884000008FF0023
:10040000023080077F0884000008B100840A0008D9
:10041000B2002B0884003008013E80002030B50077
:10042000B21B132A152A0130162A0030AF00013002
:10043000B5023508A03E84000A30F2000030F30017
:100440003208F5003108F4000A128A1188250A12D0
:100450008A117308F9007208F8000A128A15052734
:100460000A128A117808303E831380000A30F200A5
:100470000030F300831203133208F5003108F40052
:100480000A128A116F240A128A1173088312031345
:10049000B2007208B100310832040319502A512AFF
:1004A000562A3508031D552A562A172A35080319D6
:1004B0005A2A5B2A812A2F0803195F2A602A812A77
:1004C0000130B5023508A03E84002D308313800032
:1004D000812A3508A03E840083130008AD00AE01D8
:1004E0002D08F2002E08F3002908F4002A08F50070
:1004F0000A128A11CA220A128A11013083120313C6
:10050000B50720303506031D862A872A692AC92A9D
:100510002B088400000884000A128A114C270A1252
:100520008A11253A031D952A962AA82A2B088400A9
:10053000013080072530F2000030F3002908F40074
:100540002A08F5000A128A11CA220A128A11C92A37
:10055000831203132B088400013083138007C92AF8
:100560002B088400000884000A128A114C270A1202
:100570008A11AD00AE012D08F2002E08F300290803
:10058000F4002A08F5000A128A11CA220A128A11F6
:10059000A82A0800740875040319CF2AD02AD62A7D
:1005A00074087504031DD52AD62ADD2A72080A129A
:1005B0008A15CF260A128A11692B7408093E831204
:1005C0000313A00075080318013E003EA100200897
:1005D00084008317211C83130008A200840A0008EA
:1005E000A300220823040319F62AF72A292B7408EA
:1005F000093EA00075080318013E003EA100200836
:1006000084008317211C83130008A200840A0008B9
:10061000A3007408023EA40075080318013E003EC2
:10062000A500240884008317251C83130008A60056
:10063000840A0008A7002708803AA8002308803A07
:100640002802031D252B220826020318282B292BFC
:10065000692B740884008317751C831300088312A8
:100660000313A000840A0008A1007408023EA2003F
:1006700075080318013E003EA3002208840083177A
:10068000231C831300082007A5002108A4000318D9
:10069000A40A801F4C2BA403831203132408A60072
:1006A000250884008317261C8313720880007408B1
:1006B000023EA00075080318013E003EA10020087C
:1006C00084008317211C831301308007840A0318D8
:1006D000800A080083120313A201F51F702B712BEF
:1006E0007E2BF209F309F409F509F20A0319F30A5A
:1006F0000319F40A0319F50A0130A200F91F812B2E
:10070000822B8F2BF609F709F809F909F60A031964
:10071000F70A0319F80A0319F90A0130A206003092
:10072000A6000030A5000030A4000030A30075082A
:1007300074047304720403199E2B9F2BEA2B01305F
:10074000A100AD2B0130A0000310F20DF30DF40D4C
:10075000F50DA00BA42B0130A107F51FB02BB12B79
:10076000A22B0130A0000310A30DA40DA50DA60D12
:10077000A00BB32B75087902031DC82B74087802EF
:10078000031DC82B73087702031DC82B720876025D
:10079000031CCB2BCC2BDB2B7208F6027308031C3B
:1007A000730FF7027408031C740FF8027508031C1A
:1007B000750FF902231401300310F50CF40CF30C3F
:1007C000F20CFF3E031DDC2B0130A102031DE92BBF
:1007D000EA2BB12B22080319EE2BEF2BFA2BA309DE
:1007E000A409A509A609A30A0319A40A0319A50ABD
:1007F0000319A60A2608F5002508F4002408F300CA
:100800002308F2000800F301F601E830F400033099
:10081000F5008312031307190E2C0F2C1B2C01302B
:10082000F4020030031CF503F50274087504031D7F
:100830001A2C1B2C092C74087504031D202C212C48
:10084000232CFF306E2C1330F200F20B252C282CB9
:100850008312031307192D2C2E2C3D2C0130F2008E
:100860007608073C013E362C0310F20DFF3E031DB7
:10087000342C7208FF3AF305652C0130F20076083B
:10088000073C013E452C0310F20DFF3E031D432C97
:100890007208F304E830F4000330F500071D512C12
:1008A000522C5E2C0130F4020030031CF503F502DB
:1008B00074087504031D5D2C5E2C4E2C74087504A1
:1008C000031D632C642C652C212C0130F6070830A5
:1008D0007602031C6C2C6D2C052C73080800F701A4
:1008E000F31F732C742C7B2CF209F309F20A031901
:1008F000F30A0130F700F51F7E2C7F2C862CF409BB
:10090000F509F40A0319F50A0130F706F801F901AF
:100910007208730403198D2C8E2CC32C0130F60041
:100920009A2C01300310F20DF30DFF3E031D922CA3
:100930000130F607F31F9D2C9E2C912C01300310E3
:10094000F80DF90DFF3E031D9F2C73087502031D62
:10095000AB2C72087402031CAE2CAF2CB62C7208A0
:10096000F4027308031CF503F50278140130031038
:10097000F30CF20CFF3E031DB72C0130F602031DF1
:10098000C22CC32C9E2C77080319C72CC82CCD2C45
:10099000F809F909F80A0319F90A7908F30078083F
:1009A000F200080000300A128A1572270A128A1112
:1009B0003430F700F130F600F60BDC2CF70BDC2CB2
:1009C000E12C03300A128A1518270A128A110D30F9
:1009D000F700FB30F600F60BEB2CF70BEB2CF02CB2
:1009E00003300A128A1518270A128A111D30F700DF
:1009F0009130F600F60BFA2CF70BFA2C03300A12A2
:100A00008A1518270A128A1102300A128A15182725
:100A10000A128A1102300A128A1518270A128A113C
:100A200008300A128A1518270A128A1100300A1291
:100A30008A1518270A128A110C300A128A151827EB
:100A40000A128A1100300A128A1518270A128A110E
:100A500006300A128A1518270A128A110800831212
:100A6000031365080319352D362D872D0A128A11B7
:100A700003240A128A1183120313E2000A128A1154
:100A800003240A128A1183120313E1000A128A1145
:100A900003240A128A1183120313E4000A128A1132
:100AA00003240A128A1183120313E3000A128A1123
:100AB00003240A128A1183120313DE0062086107FD
:100AC000A400A501A50D64082407A60000300318A2
:100AD00001302507A70063082607A8000030031887
:100AE00001302707A9005E0828062904031D792D77
:100AF0007A2D7F2D6208DF006408E000872DF60163
:100B0000F60A01300A128A11DF250A128A1108003A
:100B1000F701F51F8C2D8D2D942DF409F509F40A9C
:100B20000319F50A0130F700F31F972D982D9D2D1D
:100B3000F209F309F20A0319F30A7208730403199C
:100B4000A22DA32DD02D0130F600AF2D01300310C2
:100B5000F20DF30DFF3E031DA72D0130F607F31F25
:100B6000B22DB32DA62D73087502031DB92D720881
:100B70007402031CBC2DBD2DC32D7208F402730832
:100B8000031CF503F50201300310F30CF20CFF3ED9
:100B9000031DC42D0130F602031DCF2DD02DB32D22
:100BA00077080319D42DD52DDA2DF409F509F40AA7
:100BB0000319F50A7508F3007408F200080083129F
:100BC0000313A0002003031DE62DE72D072E760852
:100BD0007F3EA3002308F70004300310F70CFF3E0C
:100BE000031DED2D7708A1002308A2000F30A205F8
:100BF00021080A128A1518270A128A118312031370
:100C000022080A128A1518270A128A112C2E02307D
:100C10002006031D0C2E0D2E2C2E7608BF3EA300A1
:100C20002308F70004300310F70CFF3E031D132EBA
:100C30007708A1002308A2000F30A20521080A129C
:100C40008A1518270A128A118312031322080A121E
:100C50008A1518270A128A1108000A128A15F8261E
:100C60000A128A11F601F60A01300A128A11DF25EA
:100C70000A128A11C03083120313BB000130BC007A
:100C80005F08CC00CD014C08BD004D08BE000A1223
:100C90008A15B7270A128A11C030F7000030F80011
:100CA0000A128A11C2260A128A11F601F60A0230C5
:100CB0000A128A11DF250A128A1166308312031381
:100CC000BB001B30BC006008CC00CD014C08BD004F
:100CD0004D08BE000A128A15B7270A128A1166301B
:100CE000F7000030F8000A128A11C2260A128A118F
:100CF0000800C03083120313BB000130BC005F0842
:100D0000CC00CD014C08BD004D08BE000A128A156A
:100D1000B7270A128A11C030F3000030F4000A121B
:100D20008A15DA270A128A112730F3008030F4007E
:100D30000A128A15DA270A128A11663083120313FF
:100D4000BB001B30BC006008CC00CD014C08BD00CE
:100D50004D08BE000A128A15B7270A128A1166309A
:100D6000F3000030F4000A128A15DA270A128A11F9
:100D70002530F3008030F4000A128A15DA270A12AF
:100D80008A11080083120313A301A401EB2E230888
:100D90007707A1007808A0000318A00AA31FD12E8E
:100DA000A003831203132008A2002208FF002108D9
:100DB00084000A128A1142270A128A110A128A1121
:100DC0007B270A128A11013083120313A307031829
:100DD000A40A0030A40723087707A1007808A00020
:100DE0000318A00AA31FF52EA003831203132008E3
:100DF000A2002208FF00210884000A128A1142275B
:100E00000A128A11003A031D062F072FC72E080069
:100E10000A128A15F8260A128A11F601F60A01301A
:100E20000A128A11DF250A128A110F30F70080306A
:100E3000F8000A128A11C2260A128A11F601F60A6D
:100E400002300A128A11DF250A128A11C830831271
:100E50000313BB002130BC007B08CC00CD014C0843
:100E6000BD004D08BE000A128A15B7270A128A1162
:100E7000C830F7000030F8000A128A11C2260A12A0
:100E80008A110800FF1B4C2F83137F18831700085B
:100E9000840A0319FF0A080007308A000408840A3C
:100EA0008207003455346D346934643461346434F9
:100EB00065343A34203425346934253425340034FB
:100EC000543465346D3470342E34203469346434D1
:100ED000653461346C340034543465346D347034AA
:100EE0003A34203425346934433400340D340A3420
:100EF0000D340A340034F6007608F4000F30F4059F
:100F00007608F500F030F505831203138814750890
:100F1000F30004300310F30CFF3E031D8A2F730807
:100F20000A128A1572270A128A11831203130814EF
:100F30001A30F300F30B9A2F0000831203130810EA
:100F400074080A128A1572270A128A11831203136F
:100F500008141A30F300F30BAB2F000083120313B5
:100F600008100800831203132708AB002808AC0000
:100F70002908AD002A08AE0006300310AB0DAC0DF9
:100F8000AD0DAE0DFF3E031DBD2F2E08F5002D0843
:100F9000F4002C08F3002B08F2000030F9007A303E
:100FA000F8001230F7000030F6000A128A116A23A6
:100FB0000A128A117208FF3E831603139900181152
:100FC000981683120313981708008316031307114A
:100FD0008312031307112F30F300BF30F200F20B1E
:100FE000EF2FF30BEF2FF42F83120313071510309D
:100FF000F200F20BF92F0000831603130715080007
:101D9E00080064008001840A040603190034040656
:101DAE00D12E15307B02031CDD2EDE2EE12E7B089C
:101DBE00FF3EFB00080023307B020318E72EE82EBF
:101DCE00EB2E7B08013EFB000800F2008316031386
:101DDE00981CF22EF32EED2E720883120313990027
:101DEE00080000300A128A1518270A128A150130C7
:101DFE000A128A1518270A128A150800F91B082FCD
:101E0E00092F0A2F172F780983120313A0007909BF
:101E1E00A100A00A0319A10A2008F8002108F90060
:101E2E000800F50083120313881075080A128A152C
:101E3E0072270A128A158312031308140B30F4004A
:101E4E006230F300F30B292FF40B292F00008312BD
:101E5E0003130810080083120313E5010D30F2007E
:101E6E00F20B372F8312031307193E2F3F2F4F2FDD
:101E7E003530F200F20B412F83120313071D482F4A
:101E8E00492F4B2F0130E5002130F200F20B4D2F80
:101E9E000800831203130C1C552F562F6B2F0C109A
:101EAE009E308F0058308E000130DB070318DC0A9D
:101EBE000030DC0732305B065C04031D672F682F91
:101ECE006B2FFA14DB01DC0171088A00700E83009F
:101EDE00FE0E7E0E0900F200721C762F772F7B2FDE
:101EEE008312031308167E2F831203130812F21C9B
:101EFE00812F822F842F8816852F8812721D882F8E
:101F0E00892F8B2F08178C2F0813F21D8F2F902FD0
:101F1E00922F8817932F8813080083120313380803
:101F2E00BA00A62F3608A9003708AA003A30AB002F
:101F3E003908AC000A128A11C3210A128A158312BB
:101F4E0003133A0884000A128A114C270A128A15C2
:101F5E00003A031DB32FB42F992FB601B701080015
:101F6E003D3083120313C0003B08C1000030C20095
:101F7E00C301C401CA01CB014130B6000030B70025
:101F8E003C08B8004030B9000A128A1594270A128C
:101F9E008A158312031343083B07BF003F088400D2
:101FAE00831380010800EF2F7408FF00730884006C
:101FBE000A128A1142270A128A150A128A15EC266B
:101FCE000A128A150130F3070318F40A0030F407D9
:101FDE00740883120313FF00730884000A128A1117
:101FEE0042270A128A15003A031DFE2FFF2FDB2F00
:021FFE000800D9
:02400E00F63F7B
:00000001FF
